:020000040000FA
:100000000C945E000C9486000C9486000C94860080
:100010000C9486000C9486000C9486000C94860048
:100020000C9486000C9486000C9486000C94860038
:100030000C9486000C9486000C9486000C94860028
:100040000C9438040C9486000C9486000C94860062
:100050000C9486000C9486000C9486000C94860008
:100060000C9486000C948600000000080002010039
:100070000003040700000000000000000000000072
:10008000250028002B0000000000240027002A0083
:10009000040404040404040402020202020203032E
:1000A0000303030301020408102040800102040836
:1000B00010200102040810200B05D30511241FBED7
:1000C000CFEFD8E0DEBFCDBF21E0AEE2B1E001C0AE
:1000D0001D92A03AB207E1F711E0A0E0B1E0E6E33B
:1000E000F0E102C005900D92AE32B107D9F710E0F1
:1000F000CDE5D0E004C02197FE010E941606CC3564
:10010000D107C9F70E9482040C940E080C940000D9
:1001100090E0FC01EC55FF4F249180579F4FFC016C
:100120008491882399F090E0880F991FFC01EA5789
:10013000FF4FA591B491FC01E458FF4F8591949134
:100140008FB7F894EC91E22BEC938FBF0895AF92A8
:10015000BF92CF92DF92EF92FF920F931F93CF93B4
:10016000DF936C017B018B01040F151FEB015E0116
:10017000AE18BF08C017D10759F06991D601ED91AB
:10018000FC910190F081E02DC6010995892B79F74A
:10019000C501DF91CF911F910F91FF90EF90DF90FC
:1001A000CF90BF90AF90089590E0FC01E859FF4FC9
:1001B0002491FC01EC55FF4F3491FC01E057FF4FB7
:1001C000E491EE23C9F0222339F0233001F1A8F4A1
:1001D000213019F1223029F1F0E0EE0FFF1FE45831
:1001E000FF4FA591B4918FB7F894EC91611126C09F
:1001F00030953E233C938FBF08952730A9F02830D7
:10020000C9F0243049F7809180008F7D03C0809130
:1002100080008F7780938000DFCF84B58F7784BD97
:10022000DBCF84B58F7DFBCF8091B0008F7780933B
:10023000B000D2CF8091B0008F7DF9CF3E2BDACFC6
:10024000089590E080E00895CF93DF93EC0160E0A3
:100250008E810E94D40061E08E810E94D40060E013
:100260008E810E94D4008BE891E00197F1F7DF9135
:10027000CF910895CF92DF92EF92FF920F931F9349
:10028000CF93DF936C017C0187E0E80EF11CD0E096
:10029000C0E0062F10E0B8010C2E02C075956795DE
:1002A0000A94E2F76170F70181917F010E94D40006
:1002B0002196C430D10579F7C601DF91CF911F9106
:1002C0000F91FF90EF90DF90CF900C942401CF928C
:1002D000DF92EF92FF920F931F93CF93DF93EC0186
:1002E000F62E642F8C810E94D4008D818F3F19F0EF
:1002F00060E00E94D4000F2D10E08F8584FF25C0A0
:100300006E0187E0C80ED11CF12CE12CB8010E2C37
:1003100002C0759567950A94E2F76170F6018191C4
:100320006F010E94D400FFEFEF1AFF0A88E0E81681
:10033000F10461F7CE01DF91CF911F910F91FF90F2
:10034000EF90DF90CF900C942401B80184E0759574
:1003500067958A95E1F7CE010E943A016F2DCE0193
:10036000DF91CF911F910F91FF90EF90DF90CF9091
:100370000C943A0141E00E94670181E090E0089509
:1003800040E00C946701CF93DF93613029F09091A6
:100390006C01986090936C016093700110927101F0
:1003A00090E49093720180937301805C8093740158
:1003B000809161010E948800809162018F3F11F05D
:1003C0000E948800809163010E948800CDE5D1E001
:1003D0009E012D55314080916C0184FD0AC084E05E
:1003E00090E02196281739073CF48E810E948800FE
:1003F000EFCF88E090E0F5CF8BE39DE00197F1F738
:1004000060E0809161010E94D40060E0809163010E
:100410000E94D400809162018F3F19F060E00E9439
:10042000D40060916C0164FD41C063E08DE591E012
:100430000E943A01CBE4D6E4CE010197F1F763E0E4
:100440008DE591E00E943A012197F1F763E08DE597
:1004500091E00E943A0183E592E00197F1F762E0B2
:100460008DE591E00E943A0160916C0160628DE53A
:1004700091E00E94C00184E080936D016CE08DE505
:1004800091E00E94C00161E08DE591E00E94C00111
:100490008BE39FE10197F1F782E080936E0166E0C4
:1004A0008DE591E0DF91CF910C94C00160628DE504
:1004B00091E00E94C0018BE496E40197F1F760910E
:1004C0006C0160628DE591E00E94C00183E592E0DD
:1004D0000197F1F760916C0160628DE591E00E94F7
:1004E000C001C2CF0F931F93CF93DF93EC0188819C
:1004F0009981009759F02A813B812617370730F000
:1005000081E0DF91CF911F910F9108958B016F5F73
:100510007F4F0E944107009759F0998388831B837E
:100520000A832C813D81232B59F7FC011082E8CFEF
:1005300080E0E7CFCF93DF93EC018881998100972A
:1005400011F00E94B806198218821D821C821B823B
:100550001A82DF91CF910895EF92FF920F931F932C
:10056000CF93DF938C017B01EB0109900020E9F729
:100570002197C61BD70BBE010E947202811109C0D0
:10058000C801DF91CF911F910F91FF90EF900C94D4
:100590009A02F801D583C483B70180819181DF91EC
:1005A000CF911F910F91FF90EF900C940708EF925D
:1005B000FF920F931F93CF93DF93EC01FB01E08039
:1005C000F180E114F10411F1048115810115110587
:1005D000A9F08C819D81080F191FB801CE010E94DE
:1005E0007202882399F0288139818C819D81B7011D
:1005F000820F931F0E9407081D830C83CE01DF9199
:10060000CF911F910F91FF90EF900895CE010E941E
:100610009A02F4CFEF92FF920F931F93CF93DF9341
:10062000EC018617970781F0FB010081118101150C
:10063000110539F0E480F580B7010E947202811142
:100640000BC0CE010E949A02CE01DF91CF911F9183
:100650000F91FF90EF900895FD82EC82B8018881A0
:1006600099810E940708F0CF0F931F93CF93DF93D8
:100670008C01CBE7D1E0198218821B821A821D827D
:100680001C8265E271E0CE010E94AC021F821E82D4
:10069000198618861B861A8665E271E081E891E06A
:1006A0000E94AC0285E791E09D878C87188A1F869F
:1006B0001A8A198AB801CE01DF91CF911F910F914B
:1006C0000C940A03FC01118210821382128215829B
:1006D00014820C940A03FC0180819181009711F02F
:1006E0000C94B8060895CF92DF92EF92FF920F9389
:1006F0001F93CF93DF93CDB7DEB765970FB6F8940E
:10070000DEBF0FBECDBF8C0180E9E82E81E0F82E60
:100710008FEF9FEFF7019187808713861286B801CC
:10072000CE0101966C010E946203B8016A5F7F4F9F
:10073000CE0107960E946203F801848595859E8705
:100740008D8786858F8787859089998B888B81890E
:1007500092899B8B8A8B838994899D8B8C8BF701E3
:1007600082859385FC01EE0FFF1FE057FE4FD1827B
:10077000C0820196F70193878287CE0107960E9477
:100780006B03C6010E946B0365960FB6F894DEBF3B
:100790000FBECDBFDF91CF911F910F91FF90EF90D2
:1007A000DF90CF900895CF92DF92EF92FF920F9358
:1007B0001F93CF93DF93CDB7DEB72C970FB6F89486
:1007C000DEBF0FBECDBF8C017B01DC011F966C919B
:1007D0001F975196EC91E43008F0E3E0D70153966F
:1007E0008C91E81710F0EFEFE80FEE0DFF2DF11DE3
:1007F0008489680F6068C7010E94C001F801C48441
:10080000D584B801CE0101960E946203B601CE01E3
:1008100001960E94D702B8016A5F7F4F0E94D702FB
:10082000BC01CE0107960E9462034B855C856F81F7
:100830007885D701ED91FC910280F381E02DC7010D
:100840000995CE0107960E946B03CE0101960E9486
:100850006B032C960FB6F894DEBF0FBECDBFDF91B1
:10086000CF911F910F91FF90EF90DF90CF9008955F
:100870001F920F920FB60F9211242F933F938F93D5
:100880009F93AF93BF938091330190913401A091D6
:100890003501B09136013091320123E0230F2D371D
:1008A00058F50196A11DB11D2093320180933301AB
:1008B00090933401A0933501B093360180912E01BD
:1008C00090912F01A0913001B09131010196A11DAD
:1008D000B11D80932E0190932F01A0933001B0930E
:1008E0003101BF91AF919F918F913F912F910F90C7
:1008F0000FBE0F901F90189526E8230F0296A11D9A
:10090000B11DD2CF789484B5826084BD84B58160F6
:1009100084BD85B5826085BD85B5816085BD8091CA
:100920006E00816080936E00109281008091810042
:10093000826080938100809181008160809381003A
:10094000809180008160809380008091B1008460FC
:100950008093B1008091B00081608093B00080915D
:100960007A00846080937A0080917A00826080931C
:100970007A0080917A00816080937A0080917A0079
:10098000806880937A001092C10064E084E10E9444
:10099000C301E0915701F0915801EE0FFF1FE95C90
:1009A000FE4FC081D181E0905901F0905A016E0153
:1009B00010E000E08A859B85B701081719074CF401
:1009C000F601819191916F010E94D3030F5F1F4F38
:1009D000F1CF888199810E94D303E1E08091700179
:1009E0008111E0E0E195F0E0E35AFE4F6489606830
:1009F0008DE591E00E94C00140E150E062E171E0CC
:100A00008DE591E00E94A700C0E0D0E02097F1F3CF
:100A10000E940000FBCF0F931F93CF93DF93CDB7BE
:100A2000DEB7A1970FB6F894DEBF0FBECDBF109210
:100A3000600110925F018AE091E090935E018093E3
:100A40005D0180E1809361018FEF8093620181E11C
:100A50008093630182E18093640183E18093650167
:100A600084E18093660185E18093670110926801BB
:100A70001092690110926A0110926B0110926C0140
:100A800061E080E10E94C30110927601109275012D
:100A9000109278011092770110927A0110927901E8
:100AA00063E271E085E791E00E94AC021A8219824C
:100AB0001C821B821E821D8266E271E08E010F5F26
:100AC0001F4FC8010E94AC02C8010E943403C80134
:100AD0000E946B036BE771E0C8010E94620361E84A
:100AE00071E0CE0107960E94620380918701909188
:100AF00088019E878D87809189018F8780918A01E7
:100B000090918B01998B888B80918C0190918D01B4
:100B10009B8B8A8B80918E0190918F019D8B8C8B0A
:100B2000C8010E947303CE0107960E946B03C8019F
:100B30000E946B038CE0E0E9F1E0DE015696019043
:100B40000D928A95E1F710925801109257018DE5A8
:100B500091E090935A01809359018CE0FE017696C2
:100B6000D80101900D928A95E1F780915B019091F7
:100B70005C018131910564F4FC01EE0FFF1FE95C1B
:100B8000FE4F11830083019690935C0180935B017B
:100B9000A1960FB6F894DEBF0FBECDBFDF91CF9107
:100BA0001F910F91089581E891E00E946B038BE7FC
:100BB00091E00E946B0385E791E00C946B032F9208
:100BC0003F924F925F926F927F928F929F92AF92DD
:100BD000BF92CF92DF92EF92FF920F931F93CF932A
:100BE000DF93CDB7DEB7CA1BDB0B0FB6F894DEBFC1
:100BF0000FBECDBF09942A88398848885F846E84E7
:100C00007D848C849B84AA84B984C884DF80EE8030
:100C1000FD800C811B81AA81B981CE0FD11D0FB639
:100C2000F894DEBF0FBECDBFED010895EE0FFF1F9C
:100C30000590F491E02D09940F931F93CF93DF93C8
:100C40008230910510F482E090E0E0919E01F091F5
:100C50009F0130E020E0B0E0A0E0309799F421154A
:100C6000310509F44AC0281B390B24303105D8F569
:100C70008A819B816115710589F1FB0193838283D0
:100C8000FE0111C04081518102811381481759072B
:100C9000E0F04817590799F4109761F012960C93F9
:100CA000129713961C933296CF01DF91CF911F912B
:100CB0000F91089500939E0110939F01F4CF211589
:100CC000310551F04217530738F0A901DB019A01B1
:100CD000BD01DF01F801C1CFEF01F9CF90939F0172
:100CE00080939E01CDCFFE01E20FF31F819391937C
:100CF0002250310939832883D7CF20919C0130912C
:100D00009D01232B41F42091020130910301309386
:100D10009D0120939C01209100013091010121153A
:100D2000310541F42DB73EB74091040150910501C2
:100D3000241B350BE0919C01F0919D01E217F30714
:100D4000A0F42E1B3F0B2817390778F0AC014E5F3B
:100D50005F4F2417350748F04E0F5F1F50939D01DA
:100D600040939C01819391939FCFF0E0E0E09CCF72
:100D7000CF93DF930097E9F0FC0132971382128240
:100D8000A0919E01B0919F01ED0130E020E010970D
:100D9000A1F420813181820F931F20919C01309119
:100DA0009D012817390709F061C0F0939D01E09378
:100DB0009C01DF91CF910895EA01CE17DF07E8F596
:100DC0004A815B819E0141155105B1F7E901FB8321
:100DD000EA8349915991C40FD51FEC17FD0761F4BF
:100DE000808191810296840F951FE9019983888300
:100DF000828193819B838A83F0E0E0E012968D915B
:100E00009C9113970097B9F52D913C911197CD01C5
:100E10000296820F931F20919C0130919D0128170B
:100E2000390739F6309751F510929F0110929E01C3
:100E3000B0939D01A0939C01BCCFD383C28340811A
:100E40005181840F951FC817D90761F44E5F5F4F1A
:100E500088819981480F591F518340838A819B81E2
:100E6000938382832115310509F0B0CFF0939F0160
:100E7000E0939E019ECFFD01DC01C0CF1382128260
:100E8000D7CFB0E0A0E0E7E4F7E00C94E1058C01F7
:100E9000009751F4CB010E941C068C01C801CDB70C
:100EA000DEB7E0E10C94FD05FC01E60FF71F9C01A5
:100EB00022503109E217F30708F49DC0D901CD9102
:100EC000DC911197C617D70798F0C530D10530F3DC
:100ED000CE0104978617970708F3C61BD70B2297F6
:100EE000C193D1936D937C93CF010E94B806D6CF66
:100EF0005B01AC1ABD0A4C018C0E9D1EA0919E0197
:100F0000B0919F01512C412CF12CE12C109731F51F
:100F100080919C0190919D018815990509F05CC014
:100F20004616570608F058C08091000190910101C3
:100F3000009741F48DB79EB740910401509105018F
:100F4000841B950BE817F90708F055C0F0939D0135
:100F5000E0939C01F90171836083A0CF8D919C91F6
:100F6000119712966C90129713967C901397A81570
:100F7000B90559F56C0142E0C40ED11CCA14DB045A
:100F800020F1AC014A195B09DA011296159780F03D
:100F90006282738251834083D9016D937C93E11403
:100FA000F10471F0D7011396FC93EE93129776CF6C
:100FB00022968C0F9D1FF90191838083F301EFCF5F
:100FC000F0939F01E0939E0169CF4816590608F4FB
:100FD0002C017D01D3019ACFCB010E941C067C011C
:100FE000009749F0AE01B8010E94FE07C8010E94B7
:100FF000B806870153CF10E000E050CFFB01DC01C1
:1010000002C001900D9241505040D8F70895FB0165
:10101000DC0101900D920020E1F7089510E0CDE58C
:10102000D0E004C0FE010E9416062196CE35D107FD
:10103000C9F7F894FFCF0000A00180000000000075
:10104000BA01A700210120016272756820706C65E9
:1010500061736520776F726B00616100736F6D74EF
:04106000686E67004F
:107E0000112484B714BE81FFF0D085E080938100F7
:107E100082E08093C00088E18093C10086E0809377
:107E2000C20080E18093C4008EE0C9D0259A86E02C
:107E300020E33CEF91E0309385002093840096BBD3
:107E4000B09BFECF1D9AA8958150A9F7CC24DD24C4
:107E500088248394B5E0AB2EA1E19A2EF3E0BF2EE7
:107E6000A2D0813461F49FD0082FAFD0023811F036
:107E7000013811F484E001C083E08DD089C08234E0
:107E800011F484E103C0853419F485E0A6D080C0E4
:107E9000853579F488D0E82EFF2485D0082F10E0AE
:107EA000102F00270E291F29000F111F8ED06801E7
:107EB0006FC0863521F484E090D080E0DECF843638
:107EC00009F040C070D06FD0082F6DD080E0C81688
:107ED00080E7D80618F4F601B7BEE895C0E0D1E017
:107EE00062D089930C17E1F7F0E0CF16F0E7DF06D8
:107EF00018F0F601B7BEE89568D007B600FCFDCFD4
:107F0000A601A0E0B1E02C9130E011968C91119780
:107F100090E0982F8827822B932B1296FA010C0160
:107F200087BEE89511244E5F5F4FF1E0A038BF0790
:107F300051F7F601A7BEE89507B600FCFDCF97BE46
:107F4000E89526C08437B1F42ED02DD0F82E2BD052
:107F50003CD0F601EF2C8F010F5F1F4F84911BD097
:107F6000EA94F801C1F70894C11CD11CFA94CF0C13
:107F7000D11C0EC0853739F428D08EE10CD085E9AC
:107F80000AD08FE07ACF813511F488E018D01DD067
:107F900080E101D065CF982F8091C00085FFFCCF94
:107FA0009093C60008958091C00087FFFCCF809118
:107FB000C00084FD01C0A8958091C6000895E0E648
:107FC000F0E098E1908380830895EDDF803219F02E
:107FD00088E0F5DFFFCF84E1DECF1F93182FE3DFCA
:107FE0001150E9F7F2DF1F91089580E0E8DFEE27F6
:047FF000FF270994CA
:027FFE00040479
:00000001FF
